:0A0000000C9462000C9400000C94B4
:10000A0000000C9400000C9400000C9400000C9466
:10001A0000000C9400000C9400000C9400000C9456
:10002A0000000C948F010C9400000C948E000C9428
:10003A0000000C94D2000C9400000C9400000C9464
:10004A0000000C9400000C94000080A0C0E010276F
:10005A00E80364000A00010000100001100001001A
:10006A000000000000003030003000003030303036
:10007A003030303074656D703A0020647574793AA6
:10008A00002563256325630001002D4E414E00497A
:10009A004E460000010002006A000A0004006C00DB
:1000AA00080071027600060060027E000700660200
:1000BA0084000100F40292000000F894EE27ECBBE1
:1000CA00F1E0F5BFE5BF8DE0A2E0BB27ED938A958D
:1000DA00E9F780E098E0A0E6ED930197E9F7EEE909
:1000EA00F0E085919591009761F0A591B591059001
:1000FA001590BF01F00105900D920197E1F7FB0100
:10010A00F0CFEFE5EDBFE8E0EEBFC0E6D2E00C9439
:10011A00EC01AA93EA93FA93EFB7EA931A930A9334
:10012A001BB10CB1E12FEC71B1F4EA2DA394F0E00C
:10013A00E252FD4F0083E8E0EA1509F4AA24A091EF
:10014A00E702AF5FA093E702A83029F4E0E0E0936A
:10015A00E702689420F8099119913DC01A93E09139
:10016A00E702E030E1F3E091E602EF5FE093E602B6
:10017A00E150F0E0E252FD4F1081A091E602A83072
:10018A0019F4E0E0E093E602F894E091E702E15026
:10019A00E093E7027894E12FBBC0AA93EA93FA931B
:1001AA00EFB7EA93E091F202E030A9F0E150E09370
:1001BA00F202E091F102EF5FE093F102E150F0E028
:1001CA00E851FD4FE081ECB9A091F102A83019F491
:1001DA00E0E0E093F102E991EFBFF991E991A99189
:1001EA001895AA93A091F202A830E1F3F894E0914D
:1001FA00F202E03011F45D9918C0E091F002EF5F6D
:10020A00E093F002E150F0E0E851FD4FA881A083AD
:10021A00A091F002A83019F4E0E0E093F002E09136
:10022A00F202EF5FE093F20202C0E881ECB978943F
:10023A000C94D2031A93E5E0F0E0E093D602F0932F
:10024A00D702EEEF0E94900531F40E949C05A1E3CB
:10025A00A083E1E35DC0103D31F40E949C05A4E354
:10026A00A083E4E355C0103B31F40E949C05A7E348
:10027A00A083E7E34DC0103731F40E949C05ADE43A
:10028A00A083EDE445C0EDEF0E94900531F40E9491
:10029A009C05A2E3A083E2E33BC0103D31F40E9437
:1002AA009C05A5E3A083E5E333C0103B31F40E942B
:1002BA009C05A8E3A083E8E32BC0103731F40E9421
:1002CA009C05A0E3A083E0E323C0EBEF0E94900526
:1002DA0031F40E949C05A3E3A083E3E319C0103D17
:1002EA0031F40E949C05A6E3A083E6E311C0103B0B
:1002FA0031F40E949C05A9E3A083E9E309C0103701
:10030A0031F40E949C05A3E5A083E3E501C0E0E087
:10031A00199108950A921A92FA926A937A938A9391
:10032A009A93AA93BA93EA93FA93EFB7EA93F89453
:10033A0081DFE093F302E030B1F1A091F302A3353B
:10034A00A9F00E94A305EF58FD4FA091F302A083E4
:10035A000E94A305EE58FD4FA0E0A0830E94A305CA
:10036A003196E093D802F093D90219C0E9E9F2E094
:10037A00FA93EA93A1E7B2E00E941403A9E9B2E072
:10038A000E94AF02E093DC02F093DD026090D80293
:10039A007090D902E0E0E093D802E093D902A4EF8A
:1003AA00B1E00E94F405E0E0E093D402E093D502C4
:1003BA007894E991EFBFF991E991B991A99199914D
:1003CA00899179916991F99019900990189500E0AD
:1003DA0010E0EFE0EABBEFEFEBBBE0E0E7BBE8BB26
:1003EA00E4BBE5BBE1BBE2BBE5E0E3BFE0E0E2BFC3
:1003FA00ECBFE1E0E9BFE0E0EBB9E8EDEAB9E6E835
:10040A00E0BDE0E0E0BDE3E3E9B9A0E10E94AA03B0
:10041A0078942297E0E0E883E983ACE2B1E00E94B5
:10042A00F4059CDEF0E0E093DA02F093DB02A0919F
:10043A00DA02B091DB02A437E0E0BE0709F048C057
:10044A00A8E6CFDE0E94A8051A972CF4A0E3C9DE1D
:10045A00A091A30202C00E94AD05C3DE0E94A805B6
:10046A00EAE0F0E00E941906DF01EAE0F0E00E940B
:10047A001E06E093CB02F093CC020E94A805EAE0A4
:10048A00F0E00E941E06E093CD02F093CE02E091C6
:10049A00CD02F091CE02A091CB02B091CC02EA0F2C
:1004AA00FB1F6F01DA92CA92A3EAB2E00E94E60247
:1004BA00EAE0F0E0CE16DF062CF4A0E392DEA0918B
:1004CA00A30202C00E94AD058CDEA6E68ADE0EC03B
:1004DA00A091DA02B091DB02A836E0E0BE0731F45F
:1004EA003DDE9E2E3BDE8E2E39DEBE2E0E946B0333
:1004FA00A0E6B2E00E949903E091DC02F091DD02ED
:10050A00FA93EA93A3EAB2E00E94E602A3EAB2E00F
:10051A000E949903A6E6B2E00E949903E1EDF2E097
:10052A00FA93EA93EBE8F0E0FA93EA93E92D0E9452
:10053A00B405E82D0E94B405EB2D0E94B4058CE0A9
:10054A000E9448056096A1EDB2E00E9499032296A6
:10055A0060CFFFCFBA93AA93B981A881EC918A2F71
:10056A00AE2F0E948505A82FEE2311F01196F6CF23
:10057A00E894EC91ED3211F4689402C0EB3209F47C
:10058A00119666277727EC918A2FAE2F0E947C0559
:10059A00A82FEE2379F0FB01660F771F660F771FEE
:1005AA006E0F7F1F660F771FED91FF27E0536E0FC7
:1005BA007F1FE9CFFB011EF4E095F0953196229654
:1005CA000895BA93AA93A991B991E991F9913096AC
:1005DA002AF4E095F09531966DE26D93E89480E106
:1005EA0097E20DD088EE93E00AD084E6992707D0E7
:1005FA008AE005D06E2F10D066276C93089566277F
:10060A00E817F90720F06395E81BF90BC9F7662389
:10061A0011F416F008956894605D6D930895BA9385
:10062A00AA93E991F991A991B991CD0161916D933B
:10063A006623E1F7FC010895BA93AA93A991B991A7
:10064A00EE27FF276D91662311F03196FBCF0895AF
:10065A00BA93AA93AA27BB27E991F991059000209A
:10066A0011F01196FBCFFD010895AA93E8B3EF703C
:10067A00AE2FE881E07FEA2BE8BB85E08A95F1F7A7
:10068A00969A8DE08A95F1F796988DE08A95F1F71A
:10069A0084C0AA93A881E9DFE881E295E883A8816A
:1006AA00E4DF85E88A95F1F778C0AA93E881F0E05B
:1006BA00EC5AFF4FE491A981AE0FEBDFE981E09399
:1006CA00F802E881E093F90222960895A2E00E94D6
:1006DA00BA05ACE0DEDFA1E00E94BA05E0E0E093F3
:1006EA00F902E093F8020895AA93A881AA3031F09A
:1006FA00E091FA02A091F802AE1760F0E0E0EA9306
:10070A00A091F902AF5FA093F902CFDFA881AA30C6
:10071A0009F443C0E091F802EF5FE093F802AB9A64
:10072A00A881B7DFAB9839C0BA93AA931A93A98163
:10073A00BA81ED91A983BA831E2FE03019F0A12F57
:10074A00D3DFF5CF188123960895AA93E7B3E06F14
:10075A00E7BB8E9AA39A8F9A9698AB989798E88156
:10076A00E093FA02A4E1B0E00E94F4050E94C005F9
:10077A000E94C0050E94C005A0E277DF88EC90E0E5
:10078A000197F1F7A4E285DFA9E083DFA0E281DF28
:10079A00ACE07FDFA6E07DDF99DF21960895BA936A
:1007AA00AA931A930A93AA81BB8112960E943A06C7
:1007BA00309759F1AA81BB8114960E943A068F019B
:1007CA00309761F00230E0E01E0798F0F8013197A7
:1007DA008F01AA81BB811496ED93FC93AA81BB81F8
:1007EA001296ED91FD913196FE93EE933197AC817D
:1007FA00A083AA81BB810E943A06FF232AF0ED91C9
:10080A00FD913196FE93EE9306C0AA81BB81EFEF6C
:10081A00FFEFED93FC931981088125960895BA9309
:10082A00AA9326970E94470610E0AC85BD85E0E0B2
:10083A00F0E0ED93FC93EA89FB893196EA8BFB8B16
:10084A003197E4912E2FE03009F415C1E12FE03001
:10085A0039F4253211F411E002C00E94C8050AC118
:10086A00E130A9F4253219F40E94C80502C112E048
:10087A0040E000E02D3211F401E0FCC02B3211F40B
:10088A004BE2F8C0203211F440E2F4C002C0E23078
:10089A0039F450E013E0203311F40068EBC003C0D0
:1008AA00E33009F0E7C0203310F02A3308F007C01C
:1008BA00AAE05A9F502DE22FE0535E0FDBC0E22FD1
:1008CA00E33649F40E94CF05E889F989A481AA93FD
:1008DA000E94D505CEC0E33741F40E94CF050E949D
:1008EA00DB050E9421031E2F0AC0E03761F40E9433
:1008FA00CF050E94DB050E942D031E2F08600260AF
:10090A000F7730E034C0E43611F0E93611F40460B0
:10091A0002C0E53731F4E8E5F0E0EE83FF8315E045
:10092A000CC0E83511F4086003C0E83709F0A1C02B
:10093A00E2E6F0E0EE83FF8314E002FF14C00E94B7
:10094A00CF050E94E505AB85AA233AF4EA85FB8523
:10095A000E940206EA87FB874DE2403011F01F5FD2
:10096A0001C00B7F04C00E94CF050E94E50500FD6F
:10097A0011C0151778F407FF08C002FF04C00B7FE7
:10098A00242F115001C020E301C020E20E94C805B3
:10099A005150EFCF312F01FF17C03030A1F003FFC4
:1009AA0006C0EE81FF812591EE83FF8305C0AE81EB
:1009BA00BF812D91AE83BF830E94C805503009F0D4
:1009CA0051503150EACF4BC020E3EE81FF810E94A3
:1009DA003E06E887F987EE81FF813296EE83FF8330
:1009EA00E885F985AA85BB85AE17BF0750F02F5F4A
:1009FA00A885B985EA85FB85EA1BFB0BEA87FB8795
:100A0A00EFCF2A3328F003FF02C0295F01C0295D16
:100A1A0004FD1AC0213320F4A885B985119709F479
:100A2A0009C0531710F000FF01C013C020E207FFEE
:100A3A000BC020E3006102FF07C00B7F4A930E94AC
:100A4A00D505503009F051500E94C805503009F0C0
:100A5A0051503150A885B985129708F0B5CF00FFDB
:100A6A0008C0503031F05150E0E2EA930E94D505B7
:100A7A00F8CF10E0E0CEAC85BD850E943A060E9410
:100A8A004E0664960895FF92F82E26970E9449060C
:100A9A000E94ED05309719F4EFEFFFEF23C0DE0156
:100AAA0016960E94FE058D010E94ED05EE83FF83D6
:100ABA00E0E0E887E987DE011A960E94FE050E94B7
:100ACA003A06FA93EA931A930A93E4EDF3E0FA9357
:100ADA00EA93DE011A96A3DE9F01AE81BF81E0E0B0
:100AEA00EC93F9010E9450062A96FF900895AA9362
:100AFA00E1E0F991F03310F0FA3308F0EE270895A7
:100B0A00AA93E1E0F991F03229F0F93010F0FE30C1
:100B1A0008F0EE270895EBBBA091D602B091D70258
:100B2A000E94F405E9B3E07F1E2F103E0895F201FA
:100B3A0031962F013197E359FD4F0895E091D8027C
:100B4A00F091D9020895A091DC02B091DD020895D6
:100B5A00A091A3020E94F600A091A4020895FF2783
:100B6A00662777270E94420608950E944E03A3E053
:100B7A00B0E00C94F405A0E30E943A0388EC90E0FC
:100B8A000197F1F708952A93AD85BE85EF85F88917
:100B9A0009950895E889F9893497E88BF98B0895BE
:100BAA00AD85BE85EF85F88909950895A889B98923
:100BBA0014960E943A06EE83FF83AE81BF810895A0
:100BCA00A889B98914960E943A06EA87FB8708958C
:100BDA00DE011C960E94FE050E943A0608951096B0
:100BEA0039F080ED97E00197F1F7A8951197C9F7C9
:100BFA0008950024AF0DB01D0895F195E195F040D8
:100C0A0008950024112490E1AA0FBB1F001C111C97
:100C1A000E1A1F0A18F40E0E1F1E01C0A1609A9523
:100C2A0099F7FD01D001089512D0EBDF0EF4E5DF4C
:100C3A000895E894B7FF04C0A095B09511966894FA
:100C4A00F7FDDBDFDEDFFD010EF4D7DF0895E89460
:100C5A00F7FF02C0D2DF6894B7FF06C0A095B0952F
:100C6A00119600F8039400FA0895ED91FC911197FA
:100C7A0008950590F491E02D08957A936A93FA9372
:100C8A00EA9308955A934A933A932A931A930A93A2
:100C9A0008955D814C813B812A81198108810895DB
:00000001FF
